{
  "_format": "hh-sol-artifact-1",
  "contractName": "CoffeeDonation",
  "sourceName": "contracts/CoffeeDonation.sol",
  "abi": [
    {
      "inputs": [],
      "stateMutability": "nonpayable",
      "type": "constructor"
    },
    {
      "anonymous": false,
      "inputs": [
        {
          "indexed": true,
          "internalType": "address",
          "name": "donor",
          "type": "address"
        },
        {
          "indexed": false,
          "internalType": "uint256",
          "name": "amount",
          "type": "uint256"
        },
        {
          "indexed": false,
          "internalType": "string",
          "name": "message",
          "type": "string"
        },
        {
          "indexed": false,
          "internalType": "uint256",
          "name": "timestamp",
          "type": "uint256"
        }
      ],
      "name": "Donated",
      "type": "event"
    },
    {
      "inputs": [
        {
          "internalType": "string",
          "name": "message",
          "type": "string"
        }
      ],
      "name": "donate",
      "outputs": [],
      "stateMutability": "payable",
      "type": "function"
    },
    {
      "inputs": [
        {
          "internalType": "uint256",
          "name": "",
          "type": "uint256"
        }
      ],
      "name": "donations",
      "outputs": [
        {
          "internalType": "address",
          "name": "donor",
          "type": "address"
        },
        {
          "internalType": "uint256",
          "name": "amount",
          "type": "uint256"
        },
        {
          "internalType": "string",
          "name": "message",
          "type": "string"
        },
        {
          "internalType": "uint256",
          "name": "timestamp",
          "type": "uint256"
        }
      ],
      "stateMutability": "view",
      "type": "function"
    },
    {
      "inputs": [],
      "name": "getDonations",
      "outputs": [
        {
          "components": [
            {
              "internalType": "address",
              "name": "donor",
              "type": "address"
            },
            {
              "internalType": "uint256",
              "name": "amount",
              "type": "uint256"
            },
            {
              "internalType": "string",
              "name": "message",
              "type": "string"
            },
            {
              "internalType": "uint256",
              "name": "timestamp",
              "type": "uint256"
            }
          ],
          "internalType": "struct CoffeeDonation.Donation[]",
          "name": "",
          "type": "tuple[]"
        }
      ],
      "stateMutability": "view",
      "type": "function"
    },
    {
      "inputs": [],
      "name": "owner",
      "outputs": [
        {
          "internalType": "address payable",
          "name": "",
          "type": "address"
        }
      ],
      "stateMutability": "view",
      "type": "function"
    },
    {
      "inputs": [],
      "name": "withdraw",
      "outputs": [],
      "stateMutability": "nonpayable",
      "type": "function"
    }
  ],
  "bytecode": "0x608060405234801561001057600080fd5b50336000806101000a81548173ffffffffffffffffffffffffffffffffffffffff021916908373ffffffffffffffffffffffffffffffffffffffff160217905550610d4e806100606000396000f3fe60806040526004361061004a5760003560e01c80633ccfd60b1461004f5780638da5cb5b14610066578063b5aebc8014610091578063e25f8416146100ad578063f8626af8146100d8575b600080fd5b34801561005b57600080fd5b50610064610118565b005b34801561007257600080fd5b5061007b61020f565b60405161008891906106ce565b60405180910390f35b6100ab60048036038101906100a69190610843565b610233565b005b3480156100b957600080fd5b506100c26103a7565b6040516100cf9190610a73565b60405180910390f35b3480156100e457600080fd5b506100ff60048036038101906100fa9190610ac1565b610502565b60405161010f9493929190610b56565b60405180910390f35b60008054906101000a900473ffffffffffffffffffffffffffffffffffffffff1673ffffffffffffffffffffffffffffffffffffffff163373ffffffffffffffffffffffffffffffffffffffff16146101a6576040517f08c379a000000000000000000000000000000000000000000000000000000000815260040161019d90610bee565b60405180910390fd5b60008054906101000a900473ffffffffffffffffffffffffffffffffffffffff1673ffffffffffffffffffffffffffffffffffffffff166108fc479081150290604051600060405180830381858888f1935050505015801561020c573d6000803e3d6000fd5b50565b60008054906101000a900473ffffffffffffffffffffffffffffffffffffffff1681565b60003411610276576040517f08c379a000000000000000000000000000000000000000000000000000000000815260040161026d90610c5a565b60405180910390fd5b600160405180608001604052803373ffffffffffffffffffffffffffffffffffffffff16815260200134815260200183815260200142815250908060018154018082558091505060019003906000526020600020906004020160009091909190915060008201518160000160006101000a81548173ffffffffffffffffffffffffffffffffffffffff021916908373ffffffffffffffffffffffffffffffffffffffff1602179055506020820151816001015560408201518160020190805190602001906103459291906105ea565b506060820151816003015550503373ffffffffffffffffffffffffffffffffffffffff167fd287d523a88042de14163370f5bfb78588332322cb3f80e73b3ecbdccced0d4534834260405161039c93929190610c7a565b60405180910390a250565b60606001805480602002602001604051908101604052809291908181526020016000905b828210156104f957838290600052602060002090600402016040518060800160405290816000820160009054906101000a900473ffffffffffffffffffffffffffffffffffffffff1673ffffffffffffffffffffffffffffffffffffffff1673ffffffffffffffffffffffffffffffffffffffff1681526020016001820154815260200160028201805461045e90610ce7565b80601f016020809104026020016040519081016040528092919081815260200182805461048a90610ce7565b80156104d75780601f106104ac576101008083540402835291602001916104d7565b820191906000526020600020905b8154815290600101906020018083116104ba57829003601f168201915b50505050508152602001600382015481525050815260200190600101906103cb565b50505050905090565b6001818154811061051257600080fd5b90600052602060002090600402016000915090508060000160009054906101000a900473ffffffffffffffffffffffffffffffffffffffff169080600101549080600201805461056190610ce7565b80601f016020809104026020016040519081016040528092919081815260200182805461058d90610ce7565b80156105da5780601f106105af576101008083540402835291602001916105da565b820191906000526020600020905b8154815290600101906020018083116105bd57829003601f168201915b5050505050908060030154905084565b8280546105f690610ce7565b90600052602060002090601f016020900481019282610618576000855561065f565b82601f1061063157805160ff191683800117855561065f565b8280016001018555821561065f579182015b8281111561065e578251825591602001919060010190610643565b5b50905061066c9190610670565b5090565b5b80821115610689576000816000905550600101610671565b5090565b600073ffffffffffffffffffffffffffffffffffffffff82169050919050565b60006106b88261068d565b9050919050565b6106c8816106ad565b82525050565b60006020820190506106e360008301846106bf565b92915050565b6000604051905090565b600080fd5b600080fd5b600080fd5b600080fd5b6000601f19601f8301169050919050565b7f4e487b7100000000000000000000000000000000000000000000000000000000600052604160045260246000fd5b61075082610707565b810181811067ffffffffffffffff8211171561076f5761076e610718565b5b80604052505050565b60006107826106e9565b905061078e8282610747565b919050565b600067ffffffffffffffff8211156107ae576107ad610718565b5b6107b782610707565b9050602081019050919050565b82818337600083830152505050565b60006107e66107e184610793565b610778565b90508281526020810184848401111561080257610801610702565b5b61080d8482856107c4565b509392505050565b600082601f83011261082a576108296106fd565b5b813561083a8482602086016107d3565b91505092915050565b600060208284031215610859576108586106f3565b5b600082013567ffffffffffffffff811115610877576108766106f8565b5b61088384828501610815565b91505092915050565b600081519050919050565b600082825260208201905092915050565b6000819050602082019050919050565b60006108c38261068d565b9050919050565b6108d3816108b8565b82525050565b6000819050919050565b6108ec816108d9565b82525050565b600081519050919050565b600082825260208201905092915050565b60005b8381101561092c578082015181840152602081019050610911565b8381111561093b576000848401525b50505050565b600061094c826108f2565b61095681856108fd565b935061096681856020860161090e565b61096f81610707565b840191505092915050565b600060808301600083015161099260008601826108ca565b5060208301516109a560208601826108e3565b50604083015184820360408601526109bd8282610941565b91505060608301516109d260608601826108e3565b508091505092915050565b60006109e9838361097a565b905092915050565b6000602082019050919050565b6000610a098261088c565b610a138185610897565b935083602082028501610a25856108a8565b8060005b85811015610a615784840389528151610a4285826109dd565b9450610a4d836109f1565b925060208a01995050600181019050610a29565b50829750879550505050505092915050565b60006020820190508181036000830152610a8d81846109fe565b905092915050565b610a9e816108d9565b8114610aa957600080fd5b50565b600081359050610abb81610a95565b92915050565b600060208284031215610ad757610ad66106f3565b5b6000610ae584828501610aac565b91505092915050565b610af7816108b8565b82525050565b610b06816108d9565b82525050565b600082825260208201905092915050565b6000610b28826108f2565b610b328185610b0c565b9350610b4281856020860161090e565b610b4b81610707565b840191505092915050565b6000608082019050610b6b6000830187610aee565b610b786020830186610afd565b8181036040830152610b8a8185610b1d565b9050610b996060830184610afd565b95945050505050565b7f4f6e6c79206f776e65722063616e207769746864726177000000000000000000600082015250565b6000610bd8601783610b0c565b9150610be382610ba2565b602082019050919050565b60006020820190508181036000830152610c0781610bcb565b9050919050565b7f446f6e6174696f6e206d7573742062652067726561746572207468616e203000600082015250565b6000610c44601f83610b0c565b9150610c4f82610c0e565b602082019050919050565b60006020820190508181036000830152610c7381610c37565b9050919050565b6000606082019050610c8f6000830186610afd565b8181036020830152610ca18185610b1d565b9050610cb06040830184610afd565b949350505050565b7f4e487b7100000000000000000000000000000000000000000000000000000000600052602260045260246000fd5b60006002820490506001821680610cff57607f821691505b602082108103610d1257610d11610cb8565b5b5091905056fea26469706673582212203fcd37c5ccb7a826c88ad3c325abe0dafd54d4cc8727d74edc6fa395b401081b64736f6c634300080d0033",
  "linkReferences": {},
  "deployedLinkReferences": {}
}